{"abi":[{"type":"constructor","inputs":[{"name":"_name","type":"string","internalType":"string"},{"name":"_ticker","type":"string","internalType":"string"},{"name":"_creatorAddr","type":"address","internalType":"address"},{"name":"_charity","type":"address","internalType":"address"}],"stateMutability":"nonpayable"},{"type":"function","name":"acceptOwnership","inputs":[],"outputs":[],"stateMutability":"nonpayable"},{"type":"function","name":"approve","inputs":[{"name":"to","type":"address","internalType":"address"},{"name":"tokenId","type":"uint256","internalType":"uint256"}],"outputs":[],"stateMutability":"nonpayable"},{"type":"function","name":"balanceOf","inputs":[{"name":"owner","type":"address","internalType":"address"}],"outputs":[{"name":"","type":"uint256","internalType":"uint256"}],"stateMutability":"view"},{"type":"function","name":"burn","inputs":[{"name":"tokenId","type":"uint256","internalType":"uint256"}],"outputs":[],"stateMutability":"nonpayable"},{"type":"function","name":"charity","inputs":[],"outputs":[{"name":"","type":"address","internalType":"address"}],"stateMutability":"view"},{"type":"function","name":"contractURI","inputs":[],"outputs":[{"name":"","type":"string","internalType":"string"}],"stateMutability":"view"},{"type":"function","name":"creator","inputs":[],"outputs":[{"name":"","type":"address","internalType":"address"}],"stateMutability":"view"},{"type":"function","name":"getApproved","inputs":[{"name":"tokenId","type":"uint256","internalType":"uint256"}],"outputs":[{"name":"","type":"address","internalType":"address"}],"stateMutability":"view"},{"type":"function","name":"hashOf","inputs":[{"name":"to","type":"address","internalType":"address"},{"name":"nonce","type":"uint256","internalType":"uint256"},{"name":"_uri","type":"string","internalType":"string"},{"name":"price","type":"uint256","internalType":"uint256"},{"name":"expires","type":"uint256","internalType":"uint256"}],"outputs":[{"name":"","type":"bytes32","internalType":"bytes32"}],"stateMutability":"pure"},{"type":"function","name":"isApprovedForAll","inputs":[{"name":"owner","type":"address","internalType":"address"},{"name":"operator","type":"address","internalType":"address"}],"outputs":[{"name":"","type":"bool","internalType":"bool"}],"stateMutability":"view"},{"type":"function","name":"live","inputs":[],"outputs":[{"name":"","type":"bool","internalType":"bool"}],"stateMutability":"view"},{"type":"function","name":"mint","inputs":[{"name":"to","type":"address","internalType":"address"},{"name":"nonce","type":"uint256","internalType":"uint256"},{"name":"_uri","type":"string","internalType":"string"},{"name":"price","type":"uint256","internalType":"uint256"},{"name":"expires","type":"uint256","internalType":"uint256"},{"name":"signature","type":"bytes","internalType":"bytes"}],"outputs":[{"name":"","type":"uint256","internalType":"uint256"}],"stateMutability":"payable"},{"type":"function","name":"name","inputs":[],"outputs":[{"name":"","type":"string","internalType":"string"}],"stateMutability":"view"},{"type":"function","name":"nonceOf","inputs":[{"name":"account","type":"address","internalType":"address"}],"outputs":[{"name":"","type":"uint256","internalType":"uint256"}],"stateMutability":"view"},{"type":"function","name":"owner","inputs":[],"outputs":[{"name":"","type":"address","internalType":"address"}],"stateMutability":"view"},{"type":"function","name":"ownerOf","inputs":[{"name":"tokenId","type":"uint256","internalType":"uint256"}],"outputs":[{"name":"","type":"address","internalType":"address"}],"stateMutability":"view"},{"type":"function","name":"pendingOwner","inputs":[],"outputs":[{"name":"","type":"address","internalType":"address"}],"stateMutability":"view"},{"type":"function","name":"renounceOwnership","inputs":[],"outputs":[],"stateMutability":"nonpayable"},{"type":"function","name":"safeTransferFrom","inputs":[{"name":"from","type":"address","internalType":"address"},{"name":"to","type":"address","internalType":"address"},{"name":"tokenId","type":"uint256","internalType":"uint256"}],"outputs":[],"stateMutability":"nonpayable"},{"type":"function","name":"safeTransferFrom","inputs":[{"name":"from","type":"address","internalType":"address"},{"name":"to","type":"address","internalType":"address"},{"name":"tokenId","type":"uint256","internalType":"uint256"},{"name":"data","type":"bytes","internalType":"bytes"}],"outputs":[],"stateMutability":"nonpayable"},{"type":"function","name":"setApprovalForAll","inputs":[{"name":"operator","type":"address","internalType":"address"},{"name":"approved","type":"bool","internalType":"bool"}],"outputs":[],"stateMutability":"nonpayable"},{"type":"function","name":"setBaseUri","inputs":[{"name":"_uri","type":"string","internalType":"string"}],"outputs":[],"stateMutability":"nonpayable"},{"type":"function","name":"setCharity","inputs":[{"name":"_charity","type":"address","internalType":"address"}],"outputs":[],"stateMutability":"nonpayable"},{"type":"function","name":"setContractURI","inputs":[{"name":"newURI","type":"string","internalType":"string"}],"outputs":[],"stateMutability":"nonpayable"},{"type":"function","name":"setCreator","inputs":[{"name":"_creatorAddr","type":"address","internalType":"address"}],"outputs":[],"stateMutability":"nonpayable"},{"type":"function","name":"setTokenURI","inputs":[{"name":"tokenId","type":"uint256","internalType":"uint256"},{"name":"_uri","type":"string","internalType":"string"}],"outputs":[],"stateMutability":"nonpayable"},{"type":"function","name":"signerOf","inputs":[{"name":"to","type":"address","internalType":"address"},{"name":"nonce","type":"uint256","internalType":"uint256"},{"name":"_uri","type":"string","internalType":"string"},{"name":"price","type":"uint256","internalType":"uint256"},{"name":"expires","type":"uint256","internalType":"uint256"},{"name":"signature","type":"bytes","internalType":"bytes"}],"outputs":[{"name":"","type":"address","internalType":"address"}],"stateMutability":"pure"},{"type":"function","name":"supportsInterface","inputs":[{"name":"interfaceId","type":"bytes4","internalType":"bytes4"}],"outputs":[{"name":"","type":"bool","internalType":"bool"}],"stateMutability":"view"},{"type":"function","name":"symbol","inputs":[],"outputs":[{"name":"","type":"string","internalType":"string"}],"stateMutability":"view"},{"type":"function","name":"toggleLive","inputs":[],"outputs":[],"stateMutability":"nonpayable"},{"type":"function","name":"tokenByIndex","inputs":[{"name":"index","type":"uint256","internalType":"uint256"}],"outputs":[{"name":"","type":"uint256","internalType":"uint256"}],"stateMutability":"view"},{"type":"function","name":"tokenOfOwnerByIndex","inputs":[{"name":"owner","type":"address","internalType":"address"},{"name":"index","type":"uint256","internalType":"uint256"}],"outputs":[{"name":"","type":"uint256","internalType":"uint256"}],"stateMutability":"view"},{"type":"function","name":"tokenURI","inputs":[{"name":"tokenId","type":"uint256","internalType":"uint256"}],"outputs":[{"name":"","type":"string","internalType":"string"}],"stateMutability":"view"},{"type":"function","name":"totalSupply","inputs":[],"outputs":[{"name":"","type":"uint256","internalType":"uint256"}],"stateMutability":"view"},{"type":"function","name":"transferFrom","inputs":[{"name":"from","type":"address","internalType":"address"},{"name":"to","type":"address","internalType":"address"},{"name":"tokenId","type":"uint256","internalType":"uint256"}],"outputs":[],"stateMutability":"nonpayable"},{"type":"function","name":"transferOwnership","inputs":[{"name":"newOwner","type":"address","internalType":"address"}],"outputs":[],"stateMutability":"nonpayable"},{"type":"function","name":"verifyCreatorSignedMint","inputs":[{"name":"to","type":"address","internalType":"address"},{"name":"nonce","type":"uint256","internalType":"uint256"},{"name":"_uri","type":"string","internalType":"string"},{"name":"price","type":"uint256","internalType":"uint256"},{"name":"expires","type":"uint256","internalType":"uint256"},{"name":"signature","type":"bytes","internalType":"bytes"}],"outputs":[{"name":"","type":"bool","internalType":"bool"}],"stateMutability":"view"},{"type":"function","name":"withdraw","inputs":[],"outputs":[],"stateMutability":"nonpayable"},{"type":"event","name":"Approval","inputs":[{"name":"owner","type":"address","indexed":true,"internalType":"address"},{"name":"approved","type":"address","indexed":true,"internalType":"address"},{"name":"tokenId","type":"uint256","indexed":true,"internalType":"uint256"}],"anonymous":false},{"type":"event","name":"ApprovalForAll","inputs":[{"name":"owner","type":"address","indexed":true,"internalType":"address"},{"name":"operator","type":"address","indexed":true,"internalType":"address"},{"name":"approved","type":"bool","indexed":false,"internalType":"bool"}],"anonymous":false},{"type":"event","name":"BatchMetadataUpdate","inputs":[{"name":"_fromTokenId","type":"uint256","indexed":false,"internalType":"uint256"},{"name":"_toTokenId","type":"uint256","indexed":false,"internalType":"uint256"}],"anonymous":false},{"type":"event","name":"ContractURIUpdated","inputs":[],"anonymous":false},{"type":"event","name":"MetadataUpdate","inputs":[{"name":"_tokenId","type":"uint256","indexed":false,"internalType":"uint256"}],"anonymous":false},{"type":"event","name":"OwnershipTransferStarted","inputs":[{"name":"previousOwner","type":"address","indexed":true,"internalType":"address"},{"name":"newOwner","type":"address","indexed":true,"internalType":"address"}],"anonymous":false},{"type":"event","name":"OwnershipTransferred","inputs":[{"name":"previousOwner","type":"address","indexed":true,"internalType":"address"},{"name":"newOwner","type":"address","indexed":true,"internalType":"address"}],"anonymous":false},{"type":"event","name":"Transfer","inputs":[{"name":"from","type":"address","indexed":true,"internalType":"address"},{"name":"to","type":"address","indexed":true,"internalType":"address"},{"name":"tokenId","type":"uint256","indexed":true,"internalType":"uint256"}],"anonymous":false},{"type":"error","name":"ECDSAInvalidSignature","inputs":[]},{"type":"error","name":"ECDSAInvalidSignatureLength","inputs":[{"name":"length","type":"uint256","internalType":"uint256"}]},{"type":"error","name":"ECDSAInvalidSignatureS","inputs":[{"name":"s","type":"bytes32","internalType":"bytes32"}]},{"type":"error","name":"ERC721EnumerableForbiddenBatchMint","inputs":[]},{"type":"error","name":"ERC721IncorrectOwner","inputs":[{"name":"sender","type":"address","internalType":"address"},{"name":"tokenId","type":"uint256","internalType":"uint256"},{"name":"owner","type":"address","internalType":"address"}]},{"type":"error","name":"ERC721InsufficientApproval","inputs":[{"name":"operator","type":"address","internalType":"address"},{"name":"tokenId","type":"uint256","internalType":"uint256"}]},{"type":"error","name":"ERC721InvalidApprover","inputs":[{"name":"approver","type":"address","internalType":"address"}]},{"type":"error","name":"ERC721InvalidOperator","inputs":[{"name":"operator","type":"address","internalType":"address"}]},{"type":"error","name":"ERC721InvalidOwner","inputs":[{"name":"owner","type":"address","internalType":"address"}]},{"type":"error","name":"ERC721InvalidReceiver","inputs":[{"name":"receiver","type":"address","internalType":"address"}]},{"type":"error","name":"ERC721InvalidSender","inputs":[{"name":"sender","type":"address","internalType":"address"}]},{"type":"error","name":"ERC721NonexistentToken","inputs":[{"name":"tokenId","type":"uint256","internalType":"uint256"}]},{"type":"error","name":"ERC721OutOfBoundsIndex","inputs":[{"name":"owner","type":"address","internalType":"address"},{"name":"index","type":"uint256","internalType":"uint256"}]},{"type":"error","name":"InsufficientPayment","inputs":[]},{"type":"error","name":"MintNotLive","inputs":[]},{"type":"error","name":"OwnableInvalidOwner","inputs":[{"name":"owner","type":"address","internalType":"address"}]},{"type":"error","name":"OwnableUnauthorizedAccount","inputs":[{"name":"account","type":"address","internalType":"address"}]},{"type":"error","name":"TokenDoesNotExist","inputs":[]}],"bytecode":{"object":"0x60806040523480156200001157600080fd5b50604051620030d2380380620030d283398101604081905262000034916200021c565b33848460006200004583826200033c565b5060016200005482826200033c565b5050506001600160a01b0381166200008657604051631e4fbdf760e01b81526000600482015260240160405180910390fd5b6200009181620000c7565b50600e80546001600160a01b039384166001600160a01b0319918216179091556011805492909316911617905550620004089050565b600c80546001600160a01b0319169055620000e281620000e5565b50565b600b80546001600160a01b038381166001600160a01b0319831681179093556040519116919082907f8be0079c531659141344cd1fd0a4f28419497f9722a3daafe3b4186f6b6457e090600090a35050565b634e487b7160e01b600052604160045260246000fd5b600082601f8301126200015f57600080fd5b81516001600160401b03808211156200017c576200017c62000137565b604051601f8301601f19908116603f01168101908282118183101715620001a757620001a762000137565b8160405283815260209250866020858801011115620001c557600080fd5b600091505b83821015620001e95785820183015181830184015290820190620001ca565b6000602085830101528094505050505092915050565b80516001600160a01b03811681146200021757600080fd5b919050565b600080600080608085870312156200023357600080fd5b84516001600160401b03808211156200024b57600080fd5b62000259888389016200014d565b955060208701519150808211156200027057600080fd5b506200027f878288016200014d565b9350506200029060408601620001ff565b9150620002a060608601620001ff565b905092959194509250565b600181811c90821680620002c057607f821691505b602082108103620002e157634e487b7160e01b600052602260045260246000fd5b50919050565b601f82111562000337576000816000526020600020601f850160051c81016020861015620003125750805b601f850160051c820191505b8181101562000333578281556001016200031e565b5050505b505050565b81516001600160401b0381111562000358576200035862000137565b6200037081620003698454620002ab565b84620002e7565b602080601f831160018114620003a857600084156200038f5750858301515b600019600386901b1c1916600185901b17855562000333565b600085815260208120601f198616915b82811015620003d957888601518255948401946001909101908401620003b8565b5085821015620003f85787850151600019600388901b60f8161c191681555b5050505050600190811b01905550565b612cba80620004186000396000f3fe6080604052600436106102855760003560e01c8063715018a611610153578063b1c599eb116100cb578063e985e9c51161007f578063ed2a2d6411610064578063ed2a2d64146106fc578063f2fde38b14610732578063fb6f71a31461075257600080fd5b8063e985e9c51461069e578063ec0d7557146106e757600080fd5b8063c87b56dd116100b0578063c87b56dd1461064b578063e30c39781461066b578063e8a3d4851461068957600080fd5b8063b1c599eb1461060b578063b88d4fde1461062b57600080fd5b8063938e3d7b1161012257806395d89b411161010757806395d89b41146105b6578063a0bcfc7f146105cb578063a22cb465146105eb57600080fd5b8063938e3d7b14610564578063957aa58c1461058457600080fd5b8063715018a6146104fc57806379ba5097146105115780638da5cb5b14610526578063934aa0231461054457600080fd5b80632f745c591161020157806342966c68116101b55780636352211e1161019a5780636352211e146104a957806370a08231146104c9578063710fad5f146104e957600080fd5b806342966c68146104695780634f6ccce71461048957600080fd5b80633ccfd60b116101e65780633ccfd60b146104145780633f5160181461042957806342842e0e1461044957600080fd5b80632f745c59146103d457806339d91b7a146103f457600080fd5b8063095ea7b311610258578063162094c41161023d578063162094c41461037557806318160ddd1461039557806323b872dd146103b457600080fd5b8063095ea7b3146103335780631089adb11461035557600080fd5b806301ffc9a71461028a57806302d05d3f146102bf57806306fdde03146102f1578063081812fc14610313575b600080fd5b34801561029657600080fd5b506102aa6102a53660046123f1565b610772565b60405190151581526020015b60405180910390f35b3480156102cb57600080fd5b50600e546001600160a01b03165b6040516001600160a01b0390911681526020016102b6565b3480156102fd57600080fd5b506103066107fc565b6040516102b6919061245e565b34801561031f57600080fd5b506102d961032e366004612471565b61088e565b34801561033f57600080fd5b5061035361034e3660046124a6565b6108b7565b005b34801561036157600080fd5b506102d961037036600461258c565b6108c6565b34801561038157600080fd5b5061035361039036600461261c565b610924565b3480156103a157600080fd5b506008545b6040519081526020016102b6565b3480156103c057600080fd5b506103536103cf366004612663565b61096e565b3480156103e057600080fd5b506103a66103ef3660046124a6565b610a30565b34801561040057600080fd5b506103a661040f36600461269f565b610aae565b34801561042057600080fd5b50610353610aea565b34801561043557600080fd5b50610353610444366004612708565b610b4a565b34801561045557600080fd5b50610353610464366004612663565b610b81565b34801561047557600080fd5b50610353610484366004612471565b610ba1565b34801561049557600080fd5b506103a66104a4366004612471565b610c78565b3480156104b557600080fd5b506102d96104c4366004612471565b610cea565b3480156104d557600080fd5b506103a66104e4366004612708565b610cf5565b6103a66104f736600461258c565b610d56565b34801561050857600080fd5b50610353611001565b34801561051d57600080fd5b50610353611015565b34801561053257600080fd5b50600b546001600160a01b03166102d9565b34801561055057600080fd5b506011546102d9906001600160a01b031681565b34801561057057600080fd5b5061035361057f366004612723565b61106f565b34801561059057600080fd5b50600c546102aa9074010000000000000000000000000000000000000000900460ff1681565b3480156105c257600080fd5b506103066110b0565b3480156105d757600080fd5b506103536105e6366004612758565b6110bf565b3480156105f757600080fd5b506103536106063660046127ca565b6110d4565b34801561061757600080fd5b506102aa61062636600461258c565b6110df565b34801561063757600080fd5b50610353610646366004612806565b611111565b34801561065757600080fd5b50610306610666366004612471565b611129565b34801561067757600080fd5b50600c546001600160a01b03166102d9565b34801561069557600080fd5b50610306611134565b3480156106aa57600080fd5b506102aa6106b936600461286e565b6001600160a01b03918216600090815260056020908152604080832093909416825291909152205460ff1690565b3480156106f357600080fd5b50610353611143565b34801561070857600080fd5b506103a6610717366004612708565b6001600160a01b031660009081526012602052604090205490565b34801561073e57600080fd5b5061035361074d366004612708565b611198565b34801561075e57600080fd5b5061035361076d366004612708565b611216565b600061077d8261124d565b8061078c575061078c82611330565b8061079b575061079b82611382565b806107e757507fffffffff0000000000000000000000000000000000000000000000000000000082167f4906490600000000000000000000000000000000000000000000000000000000145b806107f657506107f682611330565b92915050565b60606000805461080b906128a1565b80601f0160208091040260200160405190810160405280929190818152602001828054610837906128a1565b80156108845780601f1061085957610100808354040283529160200191610884565b820191906000526020600020905b81548152906001019060200180831161086757829003601f168201915b5050505050905090565b6000610899826113d8565b506000828152600460205260409020546001600160a01b03166107f6565b6108c282823361142a565b5050565b60008061090c6108d98989898989610aae565b7f19457468657265756d205369676e6564204d6573736167653a0a3332000000006000908152601c91909152603c902090565b90506109188184611437565b98975050505050505050565b61092c611461565b61093682826114a7565b6040518281527ff8e1a15aba9398e019f0b49df1a4fde98ee17ae345cb5f6b5e2c27f5033e8ce7906020015b60405180910390a15050565b6001600160a01b0382166109b6576040517f64a0ae92000000000000000000000000000000000000000000000000000000008152600060048201526024015b60405180910390fd5b60006109c38383336114f0565b9050836001600160a01b0316816001600160a01b031614610a2a576040517f64283d7b0000000000000000000000000000000000000000000000000000000081526001600160a01b03808616600483015260248201849052821660448201526064016109ad565b50505050565b6000610a3b83610cf5565b8210610a85576040517fa57d13dc0000000000000000000000000000000000000000000000000000000081526001600160a01b0384166004820152602481018390526044016109ad565b506001600160a01b03919091166000908152600660209081526040808320938352929052205490565b60008585858585604051602001610ac99594939291906128f4565b60405160208183030381529060405280519060200120905095945050505050565b610af2611461565b604051600090339047908381818185875af1925050503d8060008114610b34576040519150601f19603f3d011682016040523d82523d6000602084013e610b39565b606091505b5050905080610b4757600080fd5b50565b610b52611461565b600e805473ffffffffffffffffffffffffffffffffffffffff19166001600160a01b0392909216919091179055565b610b9c83838360405180602001604052806000815250611111565b505050565b33610bab82610cea565b6001600160a01b03161480610bca5750600b546001600160a01b031633145b610c56576040517f08c379a000000000000000000000000000000000000000000000000000000000815260206004820152602160248201527f596f75206d757374206f776e2074686520746f6b656e20746f206275726e206960448201527f740000000000000000000000000000000000000000000000000000000000000060648201526084016109ad565b610c5f81611505565b610b4781604051806020016040528060008152506114a7565b6000610c8360085490565b8210610cc5576040517fa57d13dc00000000000000000000000000000000000000000000000000000000815260006004820152602481018390526044016109ad565b60088281548110610cd857610cd8612952565b90600052602060002001549050919050565b60006107f6826113d8565b60006001600160a01b038216610d3a576040517f89c62b64000000000000000000000000000000000000000000000000000000008152600060048201526024016109ad565b506001600160a01b031660009081526003602052604090205490565b600c5460009074010000000000000000000000000000000000000000900460ff16610dad576040517f0aea1c5d00000000000000000000000000000000000000000000000000000000815260040160405180910390fd5b83341015610de7576040517fcd1c886700000000000000000000000000000000000000000000000000000000815260040160405180910390fd5b610df58787878787876110df565b610e5b576040517f08c379a000000000000000000000000000000000000000000000000000000000815260206004820152601160248201527f496e76616c6964207369676e617475726500000000000000000000000000000060448201526064016109ad565b428311610ec4576040517f08c379a000000000000000000000000000000000000000000000000000000000815260206004820152601160248201527f45787069726564207369676e617475726500000000000000000000000000000060448201526064016109ad565b6001600160a01b0387166000908152601260205260409020548611610f45576040517f08c379a000000000000000000000000000000000000000000000000000000000815260206004820152600d60248201527f496e76616c6964206e6f6e63650000000000000000000000000000000000000060448201526064016109ad565b6011546040516000916001600160a01b03169034908381818185875af1925050503d8060008114610f92576040519150601f19603f3d011682016040523d82523d6000602084013e610f97565b606091505b5050905080610fa557600080fd5b6001600f6000828254610fb891906129b0565b92505081905550610fcb88600f54611511565b610fd7600f54876114a7565b50506001600160a01b0386166000908152601260205260409020859055600f549695505050505050565b611009611461565b611013600061152b565b565b600c5433906001600160a01b03168114611066576040517f118cdaa70000000000000000000000000000000000000000000000000000000081526001600160a01b03821660048201526024016109ad565b610b478161152b565b611077611461565b60106110838282612a0b565b506040517fa5d4097edda6d87cb9329af83fb3712ef77eeb13738ffe43cc35a4ce305ad96290600090a150565b60606001805461080b906128a1565b6110c7611461565b600d610b9c828483612acb565b6108c2338383611551565b600e546000906001600160a01b03166110fc8888888888886108c6565b6001600160a01b031614979650505050505050565b61111c84848461096e565b610a2a3385858585611627565b60606107f6826117ce565b60606010805461080b906128a1565b61114b611461565b600c80547fffffffffffffffffffffff00ffffffffffffffffffffffffffffffffffffffff8116740100000000000000000000000000000000000000009182900460ff1615909102179055565b6111a0611461565b600c80546001600160a01b03831673ffffffffffffffffffffffffffffffffffffffff1990911681179091556111de600b546001600160a01b031690565b6001600160a01b03167f38d16b8cac22d99fc7c124b9cd0de2d3fa1faef420bfe791d8c362d765e2270060405160405180910390a350565b61121e611461565b6011805473ffffffffffffffffffffffffffffffffffffffff19166001600160a01b0392909216919091179055565b60007fffffffff0000000000000000000000000000000000000000000000000000000082167f80ac58cd0000000000000000000000000000000000000000000000000000000014806112e057507fffffffff0000000000000000000000000000000000000000000000000000000082167f5b5e139f00000000000000000000000000000000000000000000000000000000145b806107f657507f01ffc9a7000000000000000000000000000000000000000000000000000000007fffffffff000000000000000000000000000000000000000000000000000000008316146107f6565b60007fffffffff0000000000000000000000000000000000000000000000000000000082167f490649060000000000000000000000000000000000000000000000000000000014806107f657506107f6825b60007fffffffff0000000000000000000000000000000000000000000000000000000082167f780e9d630000000000000000000000000000000000000000000000000000000014806107f657506107f68261124d565b6000818152600260205260408120546001600160a01b0316806107f6576040517f7e273289000000000000000000000000000000000000000000000000000000008152600481018490526024016109ad565b610b9c83838360016118d7565b6000806000806114478686611a22565b9250925092506114578282611a6f565b5090949350505050565b600b546001600160a01b03163314611013576040517f118cdaa70000000000000000000000000000000000000000000000000000000081523360048201526024016109ad565b6000828152600a602052604090206114bf8282612a0b565b506040518281527ff8e1a15aba9398e019f0b49df1a4fde98ee17ae345cb5f6b5e2c27f5033e8ce790602001610962565b60006114fd848484611b73565b949350505050565b6108c2600082336114f0565b6108c2828260405180602001604052806000815250611c40565b600c805473ffffffffffffffffffffffffffffffffffffffff19169055610b4781611c58565b6001600160a01b03821661159c576040517f5b08ba180000000000000000000000000000000000000000000000000000000081526001600160a01b03831660048201526024016109ad565b6001600160a01b0383811660008181526005602090815260408083209487168084529482529182902080547fffffffffffffffffffffffffffffffffffffffffffffffffffffffffffffff001686151590811790915591519182527f17307eab39ab6107e8899845ad3d59bd9653f200f220920489ca2b5937696c31910160405180910390a3505050565b6001600160a01b0383163b156117c7576040517f150b7a020000000000000000000000000000000000000000000000000000000081526001600160a01b0384169063150b7a0290611682908890889087908790600401612b8b565b6020604051808303816000875af19250505080156116bd575060408051601f3d908101601f191682019092526116ba91810190612bc7565b60015b61173f573d8080156116eb576040519150601f19603f3d011682016040523d82523d6000602084013e6116f0565b606091505b508051600003611737576040517f64a0ae920000000000000000000000000000000000000000000000000000000081526001600160a01b03851660048201526024016109ad565b805181602001fd5b7fffffffff0000000000000000000000000000000000000000000000000000000081167f150b7a0200000000000000000000000000000000000000000000000000000000146117c5576040517f64a0ae920000000000000000000000000000000000000000000000000000000081526001600160a01b03851660048201526024016109ad565b505b5050505050565b60606117d9826113d8565b506000828152600a6020526040812080546117f3906128a1565b80601f016020809104026020016040519081016040528092919081815260200182805461181f906128a1565b801561186c5780601f106118415761010080835404028352916020019161186c565b820191906000526020600020905b81548152906001019060200180831161184f57829003601f168201915b50505050509050600061188a60408051602081019091526000815290565b9050805160000361189c575092915050565b8151156118ce5780826040516020016118b6929190612be4565b60405160208183030381529060405292505050919050565b6114fd84611cb7565b80806118eb57506001600160a01b03821615155b156119e55760006118fb846113d8565b90506001600160a01b038316158015906119275750826001600160a01b0316816001600160a01b031614155b801561195957506001600160a01b0380821660009081526005602090815260408083209387168352929052205460ff16155b1561199b576040517fa9fbf51f0000000000000000000000000000000000000000000000000000000081526001600160a01b03841660048201526024016109ad565b81156119e35783856001600160a01b0316826001600160a01b03167f8c5be1e5ebec7d5bd14f71427d1e84f3dd0314c0f7b2291e5b200ac8c7c3b92560405160405180910390a45b505b50506000908152600460205260409020805473ffffffffffffffffffffffffffffffffffffffff19166001600160a01b0392909216919091179055565b60008060008351604103611a5c5760208401516040850151606086015160001a611a4e88828585611d2c565b955095509550505050611a68565b50508151600091506002905b9250925092565b6000826003811115611a8357611a83612c13565b03611a8c575050565b6001826003811115611aa057611aa0612c13565b03611ad7576040517ff645eedf00000000000000000000000000000000000000000000000000000000815260040160405180910390fd5b6002826003811115611aeb57611aeb612c13565b03611b25576040517ffce698f7000000000000000000000000000000000000000000000000000000008152600481018290526024016109ad565b6003826003811115611b3957611b39612c13565b036108c2576040517fd78bce0c000000000000000000000000000000000000000000000000000000008152600481018290526024016109ad565b600080611b81858585611dfb565b90506001600160a01b038116611bde57611bd984600880546000838152600960205260408120829055600182018355919091527ff3f7a9fe364faab93b216da50a3214154f22a0a2b415b23a84c8169e8b636ee30155565b611c01565b846001600160a01b0316816001600160a01b031614611c0157611c018185611f01565b6001600160a01b038516611c1d57611c1884611f92565b6114fd565b846001600160a01b0316816001600160a01b0316146114fd576114fd8585612041565b611c4a8383612091565b610b9c336000858585611627565b600b80546001600160a01b0383811673ffffffffffffffffffffffffffffffffffffffff19831681179093556040519116919082907f8be0079c531659141344cd1fd0a4f28419497f9722a3daafe3b4186f6b6457e090600090a35050565b6060611cc2826113d8565b506000611cda60408051602081019091526000815290565b90506000815111611cfa5760405180602001604052806000815250611d25565b80611d0484612128565b604051602001611d15929190612be4565b6040516020818303038152906040525b9392505050565b600080807f7fffffffffffffffffffffffffffffff5d576e7357a4501ddfe92f46681b20a0841115611d675750600091506003905082611df1565b604080516000808252602082018084528a905260ff891692820192909252606081018790526080810186905260019060a0016020604051602081039080840390855afa158015611dbb573d6000803e3d6000fd5b5050604051601f1901519150506001600160a01b038116611de757506000925060019150829050611df1565b9250600091508190505b9450945094915050565b6000828152600260205260408120546001600160a01b0390811690831615611e2857611e288184866121c8565b6001600160a01b03811615611e6657611e456000856000806118d7565b6001600160a01b038116600090815260036020526040902080546000190190555b6001600160a01b03851615611e95576001600160a01b0385166000908152600360205260409020805460010190555b600084815260026020526040808220805473ffffffffffffffffffffffffffffffffffffffff19166001600160a01b0389811691821790925591518793918516917fddf252ad1be2c89b69c2b068fc378daa952ba7f163c4a11628f55a4df523b3ef91a4949350505050565b6000611f0c83610cf5565b600083815260076020526040902054909150808214611f5f576001600160a01b03841660009081526006602090815260408083208584528252808320548484528184208190558352600790915290208190555b5060009182526007602090815260408084208490556001600160a01b039094168352600681528383209183525290812055565b600854600090611fa490600190612c42565b60008381526009602052604081205460088054939450909284908110611fcc57611fcc612952565b906000526020600020015490508060088381548110611fed57611fed612952565b600091825260208083209091019290925582815260099091526040808220849055858252812055600880548061202557612025612c55565b6001900381819060005260206000200160009055905550505050565b6000600161204e84610cf5565b6120589190612c42565b6001600160a01b039093166000908152600660209081526040808320868452825280832085905593825260079052919091209190915550565b6001600160a01b0382166120d4576040517f64a0ae92000000000000000000000000000000000000000000000000000000008152600060048201526024016109ad565b60006120e2838360006114f0565b90506001600160a01b03811615610b9c576040517f73c6ac6e000000000000000000000000000000000000000000000000000000008152600060048201526024016109ad565b606060006121358361225e565b600101905060008167ffffffffffffffff811115612155576121556124d0565b6040519080825280601f01601f19166020018201604052801561217f576020820181803683370190505b5090508181016020015b600019017f3031323334353637383961626364656600000000000000000000000000000000600a86061a8153600a850494508461218957509392505050565b6121d3838383612340565b610b9c576001600160a01b03831661221a576040517f7e273289000000000000000000000000000000000000000000000000000000008152600481018290526024016109ad565b6040517f177e802f0000000000000000000000000000000000000000000000000000000081526001600160a01b0383166004820152602481018290526044016109ad565b6000807a184f03e93ff9f4daa797ed6e38ed64bf6a1f01000000000000000083106122a7577a184f03e93ff9f4daa797ed6e38ed64bf6a1f010000000000000000830492506040015b6d04ee2d6d415b85acef810000000083106122d3576d04ee2d6d415b85acef8100000000830492506020015b662386f26fc1000083106122f157662386f26fc10000830492506010015b6305f5e1008310612309576305f5e100830492506008015b612710831061231d57612710830492506004015b6064831061232f576064830492506002015b600a83106107f65760010192915050565b60006001600160a01b038316158015906114fd5750826001600160a01b0316846001600160a01b0316148061239a57506001600160a01b0380851660009081526005602090815260408083209387168352929052205460ff165b806114fd5750506000908152600460205260409020546001600160a01b03908116911614919050565b7fffffffff0000000000000000000000000000000000000000000000000000000081168114610b4757600080fd5b60006020828403121561240357600080fd5b8135611d25816123c3565b60005b83811015612429578181015183820152602001612411565b50506000910152565b6000815180845261244a81602086016020860161240e565b601f01601f19169290920160200192915050565b602081526000611d256020830184612432565b60006020828403121561248357600080fd5b5035919050565b80356001600160a01b03811681146124a157600080fd5b919050565b600080604083850312156124b957600080fd5b6124c28361248a565b946020939093013593505050565b7f4e487b7100000000000000000000000000000000000000000000000000000000600052604160045260246000fd5b600082601f83011261251057600080fd5b813567ffffffffffffffff8082111561252b5761252b6124d0565b604051601f8301601f19908116603f01168101908282118183101715612553576125536124d0565b8160405283815286602085880101111561256c57600080fd5b836020870160208301376000602085830101528094505050505092915050565b60008060008060008060c087890312156125a557600080fd5b6125ae8761248a565b955060208701359450604087013567ffffffffffffffff808211156125d257600080fd5b6125de8a838b016124ff565b9550606089013594506080890135935060a089013591508082111561260257600080fd5b5061260f89828a016124ff565b9150509295509295509295565b6000806040838503121561262f57600080fd5b82359150602083013567ffffffffffffffff81111561264d57600080fd5b612659858286016124ff565b9150509250929050565b60008060006060848603121561267857600080fd5b6126818461248a565b925061268f6020850161248a565b9150604084013590509250925092565b600080600080600060a086880312156126b757600080fd5b6126c08661248a565b945060208601359350604086013567ffffffffffffffff8111156126e357600080fd5b6126ef888289016124ff565b9598949750949560608101359550608001359392505050565b60006020828403121561271a57600080fd5b611d258261248a565b60006020828403121561273557600080fd5b813567ffffffffffffffff81111561274c57600080fd5b6114fd848285016124ff565b6000806020838503121561276b57600080fd5b823567ffffffffffffffff8082111561278357600080fd5b818501915085601f83011261279757600080fd5b8135818111156127a657600080fd5b8660208285010111156127b857600080fd5b60209290920196919550909350505050565b600080604083850312156127dd57600080fd5b6127e68361248a565b9150602083013580151581146127fb57600080fd5b809150509250929050565b6000806000806080858703121561281c57600080fd5b6128258561248a565b93506128336020860161248a565b925060408501359150606085013567ffffffffffffffff81111561285657600080fd5b612862878288016124ff565b91505092959194509250565b6000806040838503121561288157600080fd5b61288a8361248a565b91506128986020840161248a565b90509250929050565b600181811c908216806128b557607f821691505b6020821081036128ee577f4e487b7100000000000000000000000000000000000000000000000000000000600052602260045260246000fd5b50919050565b7fffffffffffffffffffffffffffffffffffffffff0000000000000000000000008660601b1681528460148201526000845161293781603485016020890161240e565b90910160348101939093525060548201526074019392505050565b7f4e487b7100000000000000000000000000000000000000000000000000000000600052603260045260246000fd5b7f4e487b7100000000000000000000000000000000000000000000000000000000600052601160045260246000fd5b808201808211156107f6576107f6612981565b601f821115610b9c576000816000526020600020601f850160051c810160208610156129ec5750805b601f850160051c820191505b818110156117c5578281556001016129f8565b815167ffffffffffffffff811115612a2557612a256124d0565b612a3981612a3384546128a1565b846129c3565b602080601f831160018114612a6e5760008415612a565750858301515b600019600386901b1c1916600185901b1785556117c5565b600085815260208120601f198616915b82811015612a9d57888601518255948401946001909101908401612a7e565b5085821015612abb5787850151600019600388901b60f8161c191681555b5050505050600190811b01905550565b67ffffffffffffffff831115612ae357612ae36124d0565b612af783612af183546128a1565b836129c3565b6000601f841160018114612b2b5760008515612b135750838201355b600019600387901b1c1916600186901b1783556117c7565b600083815260209020601f19861690835b82811015612b5c5786850135825560209485019460019092019101612b3c565b5086821015612b795760001960f88860031b161c19848701351681555b505060018560011b0183555050505050565b60006001600160a01b03808716835280861660208401525083604083015260806060830152612bbd6080830184612432565b9695505050505050565b600060208284031215612bd957600080fd5b8151611d25816123c3565b60008351612bf681846020880161240e565b835190830190612c0a81836020880161240e565b01949350505050565b7f4e487b7100000000000000000000000000000000000000000000000000000000600052602160045260246000fd5b818103818111156107f6576107f6612981565b7f4e487b7100000000000000000000000000000000000000000000000000000000600052603160045260246000fdfea2646970667358221220a3928f536bc9356c360d2f52632f365ad4ceb29a08ff48fe2d49128c141a893564736f6c63430008170033","linkReferences":{}},"methodIdentifiers":{"acceptOwnership()":"79ba5097","approve(address,uint256)":"095ea7b3","balanceOf(address)":"70a08231","burn(uint256)":"42966c68","charity()":"934aa023","contractURI()":"e8a3d485","creator()":"02d05d3f","getApproved(uint256)":"081812fc","hashOf(address,uint256,string,uint256,uint256)":"39d91b7a","isApprovedForAll(address,address)":"e985e9c5","live()":"957aa58c","mint(address,uint256,string,uint256,uint256,bytes)":"710fad5f","name()":"06fdde03","nonceOf(address)":"ed2a2d64","owner()":"8da5cb5b","ownerOf(uint256)":"6352211e","pendingOwner()":"e30c3978","renounceOwnership()":"715018a6","safeTransferFrom(address,address,uint256)":"42842e0e","safeTransferFrom(address,address,uint256,bytes)":"b88d4fde","setApprovalForAll(address,bool)":"a22cb465","setBaseUri(string)":"a0bcfc7f","setCharity(address)":"fb6f71a3","setContractURI(string)":"938e3d7b","setCreator(address)":"3f516018","setTokenURI(uint256,string)":"162094c4","signerOf(address,uint256,string,uint256,uint256,bytes)":"1089adb1","supportsInterface(bytes4)":"01ffc9a7","symbol()":"95d89b41","toggleLive()":"ec0d7557","tokenByIndex(uint256)":"4f6ccce7","tokenOfOwnerByIndex(address,uint256)":"2f745c59","tokenURI(uint256)":"c87b56dd","totalSupply()":"18160ddd","transferFrom(address,address,uint256)":"23b872dd","transferOwnership(address)":"f2fde38b","verifyCreatorSignedMint(address,uint256,string,uint256,uint256,bytes)":"b1c599eb","withdraw()":"3ccfd60b"},"id":31}